createrawtransaction '[{"txid":"0e41a0d97cafe724c849f35ba5d20ba027b37938a825865490949c60b590ec4f","vout": 1}]' '{"2N1AzsnFw28s5hq3KDyotFHetMZ69ce2xyT": 0.010,"2MwTzHDugDZwGg1aqTm44tx9a4B6iE1wArV": 0.05872132}'


Response:

decoderawtransaction 02000000014fec90b5609c9490548625a83879b327a00bd2a55bf349c824e7af7cd9a0410e0100000000ffffffff0240420f000000000017a91456f465a05e9dacccaae3be2f8ca2f5850104ffa787049a59000000000017a9142e4a77c368931b96ab3186b8a715ebadb92379a78700000000


{
  "txid": "175e2ac01e409e4840447d1c37948f71544f139201855a553875425378cbb56d",
  "hash": "175e2ac01e409e4840447d1c37948f71544f139201855a553875425378cbb56d",
  "version": 2,
  "size": 115,
  "vsize": 115,
  "weight": 460,
  "locktime": 0,
  "vin": [
    {
      "txid": "0e41a0d97cafe724c849f35ba5d20ba027b37938a825865490949c60b590ec4f",
      "vout": 1,
      "scriptSig": {
        "asm": "",
        "hex": ""
      },
      "sequence": 4294967295
    }
  ],
  "vout": [
    {
      "value": 0.01000000,
      "n": 0,
      "scriptPubKey": {
        "asm": "OP_HASH160 56f465a05e9dacccaae3be2f8ca2f5850104ffa7 OP_EQUAL",
        "hex": "a91456f465a05e9dacccaae3be2f8ca2f5850104ffa787",
        "reqSigs": 1,
        "type": "scripthash",
        "addresses": [
          "2N1AzsnFw28s5hq3KDyotFHetMZ69ce2xyT"
        ]
      }
    },
    {
      "value": 0.05872132,
      "n": 1,
      "scriptPubKey": {
        "asm": "OP_HASH160 2e4a77c368931b96ab3186b8a715ebadb92379a7 OP_EQUAL",
        "hex": "a9142e4a77c368931b96ab3186b8a715ebadb92379a787",
        "reqSigs": 1,
        "type": "scripthash",
        "addresses": [
          "2MwTzHDugDZwGg1aqTm44tx9a4B6iE1wArV"
        ]
      }
    }
  ]
}